:020000020000FC
:1000000084CDA6C10000000020C0000094C0000004
:1000100000009EC000000000000000000203040673
:10002000080C10182030406080000406080C1018DE
:100030002030406080A0C00000070F1F3F000D0D62
:1000400004050D050305030302004FB662FD0EC053
:10005000552009F00994C52DC095089483FDC795D6
:10006000C4BDC093A10064604FBE1895C0916400E8
:10007000089483FDC795C4BDC093A1006B7FC09158
:100080006400CF3F09F420C070FF02C082FD05C0AC
:100090004FBE9598AC98C098189575FD0EC065FD3B
:1000A0000CC0C091B300C0FD9498C1FDAD98C2FDD5
:1000B000AB98CAEFC095CA95F1F79598AC98C098DF
:1000C0002092A1004FBE189524BCCC27C064C8BFA5
:1000D0006460F6CFC0CF70FFBECF65FDBCCF959AF0
:1000E000BACF70FFB8CF65FDB6CFAC9AB4CF70FF72
:1000F000B2CF65FDB0CFC09AAECF949A70FFABCFB0
:1001000065FDA9CFC7E0CA95F1F7959AA4CFAD9A3E
:1001100070FFA1CF65FD9FCFC7E0CA95F1F7AC9AFC
:100120009ACFAB9A70FF97CF65FD95CFC7E0CA9580
:10013000F1F7C09A90CF4FB6C9B7CF7EC9BF6E7FD7
:10014000CCB5CE0DDDB5DF1DDBBDCABD4FBE1895EC
:100150003FB642E54093970081608F7EABB7A074B5
:10016000A2118061A0E0ABBFA9B7AE7FA9BF789410
:10017000A0916800AA2385FD29C0A0916800AA95D6
:10018000A093680023C048EC58EC85FD13C0A0B3D1
:1001900096FDA095A2FD4FEFA3E096FDA2E0A5BFBE
:1001A000AA27A064AABF8D7FA0B396FDA095A2FD4B
:1001B0005FEF4517A8E161FDA093680085FD03C0CE
:1001C000A8E1A093680040939700816085FD04C07A
:1001D0008061AA27A064AABF80FF37C0A0919700C2
:1001E0004A2F61FF8E7F85FD1CC0A091B600A43010
:1001F000C1F4403F08F040EFA42FA295AF704A0F22
:100200005091B800533069F0A695A69550FD01C0F5
:10021000A69552FD03C0A41B4A2F03C04A0F08F441
:100220004FEF40936100A72FA67079F0A0916D0069
:10023000A695A69556E0A50F50916100A50FA09335
:10024000610018F4AFEFA09361004091B600443014
:1002500009F03EC0A0916100A0936300409163004B
:10026000A0919C004A1708F04A2FA0919E004A17BF
:1002700008F04A2F542EA091A200AA2309F422C00C
:10028000542F5A1B10F4A42F50E0BA2E8894AA1FA2
:10029000AA2EA091A400A095AA22A50E58F0A09184
:1002A000A300A21509F0AA95AA0EA093A30048F0F6
:1002B0004A2D08C0A091A300BA1608F0A395A093F8
:1002C000A3004FEF409364007F7D485F08F07062A9
:1002D000A52DA03408F06860A0916000A395A093BC
:1002E000600051F0F894A9B7A160A9BF84FF02C0D3
:1002F000A0E4ABBF3FBE1895A0917400A395A09356
:10030000740041E050916800552321F085FF02C040
:1003100050936800A0919700A13018F020929A00A5
:100320000DC020929B002092A500A0919A00AF5F83
:10033000A0939A0018F0AFEFA0939A00F894A9B791
:10034000A160A9BF84FF02C0A0E4ABBF3FBE189567
:100350003FB64CB55DB58F7EABB7A074A21180617E
:10036000A0E0ABBFA9B7AE7FA9BF789481FD1EC046
:10037000A2E096FDA3E0A5BF8260A0B396FDA09584
:10038000A2FF05C0409365005093660035C1A3E00D
:1003900096FDA2E0A5BFAA27A064AABF8D7F85FF16
:1003A00001C01DC140E0A2FD1AC10DC1A3E096FD30
:1003B000A2E0A5BF8D7F61FF71C0A2E096FDA3E022
:1003C000A5BFAA27A064AABF826040939200509361
:1003D0009300A09090004A19B09091005B09BB2453
:1003E000A22C4C38520518F42092960049C0A091D6
:1003F000D600AA2359F1483C520528F4A0E1BA2EB0
:10040000AAE0AA2E23C04836A1E05A0728F4A8E0A3
:10041000BA2EAFE0AA2E1AC0403DA2E05A0728F437
:10042000A4E0BA2EAEE1AA2E11C0403AA5E05A07C8
:1004300028F4A2E0BA2EACE3AA2E08C04839A8E0FE
:100440005A0720F4A1E0BA2EA8E7AA2EC42EA09144
:100450009400CA1AD52EA0919500DA0ADD202AF45C
:10046000AFEFC094D094CA1ADA0A20929600A8E09E
:10047000A210A0E0CA14DA0618F4A1E0A093960036
:1004800040939400509395004091920050919300B6
:10049000409390005093910002E095C0A0916500B8
:1004A0004A1BA09166005A0B94FD80C093FD7EC04C
:1004B00092FD7AC086FF03C0D52EC42E0CC056957F
:1004C000479591FD71C05695479590FD6DC0D52E0D
:1004D000C42ED694C79461FD17C0AC2DAC51AD2D80
:1004E000A24008F005C0DD2079F4AC2DA85C60F4D2
:1004F000A0916700A395AA2311F0A0936700AA30EA
:1005000008F46DC081606BC0A0916700AA2319F048
:10051000AA95A0936700A22C5091BC0097FD06C03D
:10052000A090CA00533011F4A090D200AAEFAA0EF6
:10053000A22DA21DCA18DA0A4FB74170533049F4F0
:10054000442321F087FD05C0806803C087FF01C0F8
:100550008F77442359F0533031F4AFEFC094D094E7
:10056000CA1ADA0A03C040E050E020C0533049F410
:10057000CC0CDD1CAAE0CA1AD20818F4A0E0CA2EDE
:10058000D22CAFEFCA16D20418F04FEF50E00EC0D5
:10059000A091AE00CA9E412D000C441F50E008F00F
:1005A00012C04FEF50E00FC05695479594FF07C01B
:1005B000552309F04FEFA42FA6954A0F521D4F3F28
:1005C000520508F04FEF816061FF09C0AFE1A095CF
:1005D000A923AB299A2F8F7DBB2009F48062A8E163
:1005E000A093680085FF03C0AAE0A093680061FDA6
:1005F00003C085FD01C08F7E85FD03C0A6E0A093EA
:100600006900F894A9B7A160A9BF84FF02C0A0E463
:10061000ABBF3FBE189511E00AC013E008C01AE056
:1006200006C01EE104C014E602C018EC00C005E1DB
:10063000BB27BA95F1F70A95D9F71A95C1F708952E
:100640002AE338E709C020E33CE806C02AE234EB9D
:1006500003C025E238EC00C012E095FD9F7D95FFB8
:100660009062BB27AD9ABA95F1F7AC9ABA95F1F7BB
:10067000AC98BA95F1F7AD98BA95F1F7959AB09113
:10068000AF00BA95F1F79598B7E8BA95F1F71A95D2
:1006900021F7022FB22FBA95F1F70A95D9F73A95BB
:1006A000D9F6AD9A0895221B39E0001F3A9509F456
:1006B0000895221F211B18F4210F8894F6CF089467
:1006C000F4CF622C722CB0E08894B395221F331FB4
:1006D000E0F7379527958894912E802E020B130B07
:1006E00010F4192D082D10F4889401C00894661C8C
:1006F000771CBA9571F7172D062D0895322D112309
:100700002AF43A9500951095031B130BF894029F59
:10071000712C002D129F912C802C7894780C172D21
:10072000921C292DB4E06B2E2695179507956A9497
:10073000D9F7332321F000951095031B130B08956F
:100740000091B6000430A1F1B0919700B15008F0CB
:1007500010C0B0916100B093630020927F0020929E
:1007600080002092810020928200209283006F7B83
:100770001FC06090B6006064B0916100B0936200E9
:1007800008E317EC20917A0030917B00369527958D
:10079000B62DBA9541F036952795B62DBA95BA95EE
:1007A00011F0369527958DDF00937F001093800020
:1007B000089500917F00B09162000B1B10918000A2
:1007C000120928F40038BFEF1B0740F009C00F37AB
:1007D000120508F405C00FE710E002C000E81FEFA3
:1007E0000093840010938500089500918400B091D7
:1007F00081000B0F10918500B09182001B1F20E03B
:100800003091850033230AF42A95B09183002B1F81
:100810001AF4203F40F00AC02F3008F407C00FEF51
:100820001FEF2FE003C000E010E020EF30916300E5
:10083000B0919C003B1718F4323030F009C0B091F1
:100840008500BB235AF004C0B0918500BB2332F46D
:1008500000938100109382002093830008952091DB
:10086000D80000918400000F10918500111F46DF11
:1008700011232AF40038BFEF1B0740F009C00F37DF
:10088000120508F405C00FE710E002C000E81FEFF2
:10089000002352F0B0916200B01B0B2F18F0013012
:1008A00008F00AC001E008C000950F5FB091620037
:1008B0000B0F08F001C00FEF009386000895209100
:1008C000D900009182001091830018DF11232AF4CF
:1008D0000130BFEF1B0740F009C00F3F120508F4BD
:1008E00005C00FEF10E002C001E01FEF112352F02E
:1008F000B0918600B01B0B2F18F0013008F00AC031
:1009000001E008C000950F5FB09186000B0F08F062
:1009100001C00FEF0093630008950FEF677F71FD33
:1009200029C072FD09C06860B0917B00BA3020F028
:10093000B52DB03408F4677FB091D500BB23D1F05A
:10094000B0917B00BB23B1F00FEF10917B00ABDEC9
:10095000F894B091730072FDB5E00B9F112D002D3E
:100960007894112309F00FEFB0919F000B1710F44A
:1009700000919F0000939E00089500917A001091CD
:100980007B0000541140B0919E0010F4BA9501C054
:10099000B39511F0B0939E00089500C00895209182
:1009A000B700B6B1B6FDFBCF04B115B1B6B1BF7794
:1009B000B6B9B091AC00B395B093AC00B83060F16B
:1009C0002092AC00B091D400BB2321F1112329F077
:1009D000B091AD00BF3F61F009C0B091AD000B1701
:1009E00039F020F4BB2321F0BA9502C0B395E1F3AE
:1009F00000919C00B093AD00B83850F400ECBD37C6
:100A000038F400E8B23720F400E4B73608F400E028
:100A100000939C00777F089510919C00B0E11B0F1C
:100A200008F41FEF10939C00B091B600B43081F031
:100A300000919C00B0916300B01B10F40091630022
:100A4000B0919E000B1708F00B2F502E00936400FE
:100A5000B091AC00B73009F47860089502E3F894DF
:100A6000B091DA000B9F012D000C001F7894B0911B
:100A70009C000B1710F000919C0000936100009304
:100A80006300502E0093640000939F00089520920D
:100A90007A00B0EFB0937B000895F8940CB51DB5C3
:100AA00020917400789430917500609076000093E6
:100AB000750010937600031B160971FD03C076FDC7
:100AC00081C02BC0709077002093770027092223E4
:100AD00011F00FEF1FEF8090780090907900309325
:100AE0007800609279006918161910937C000091C3
:100AF0007500109176000819190920917A0030913B
:100B00007B0036952795020F131F10F40FEF1FEF90
:100B100000937A0010937B0029C020917A003091D5
:100B20007B003901B4E08B2EB2E09B2E343010F004
:100B30008A949A94383010F08A949A9476946794B0
:100B40008A94E1F726193709992021F0169507951F
:100B50009A94E1F7200F311F20937A0030937B00A5
:100B600028F43FEF30937A0030937B00323008F462
:100B7000706471FF02C0B3E00DC0B091C600009177
:100B80007100023838F0B395003A08F0B395B630EA
:100B900008F0B5E09B2EB4E08B2E10917B00009105
:100BA0007A0024E0169507952A95E1F708191209AD
:100BB00028F0B02FB250B12FB20910F402E010E0CB
:100BC000980126C020917A0030917B0039017694FB
:100BD000679466946694669426193209069506957C
:100BE000200F321D20937A0030937B00323008F0C2
:100BF0007F7B04E036952795369527952695269593
:100C0000201B10F0223008F422E089019090C600E9
:100C100060FDFECFE0908C00F0908D006160B9B770
:100C2000B061B9BF380176FD44C0769467940093F3
:100C30008C0010938D00B92DB330E1F0B0FD04C0ED
:100C4000060D171D930106C0000F111F0250120957
:100C500022E030E0B92DB33068F020938E0030935D
:100C60008F00009388001093890060928A00709230
:100C70008B003DC000938E0010938F00209388005E
:100C80003093890060928A0070928B0071FF10C0CF
:100C9000B0916D00B33060F000918F0010917C0036
:100CA0001595010F28F022F020928E0000938F00FE
:100CB0001EC0669400938C00B92DB33091F0B0FD46
:100CC00003C0060D262D03C0000F025022E0B92DEF
:100CD000B33038F020938E000093880060928A0031
:100CE00006C000938E002093880060928A000091D5
:100CF0007D0002FD0350013029F495FD0AC0B6E0E5
:100D0000B7B909C0023019F4B7E0B7B904C095FD0E
:100D1000F6CFB0E0B7B90091A400000F10F4BBE625
:100D20000B270093A40060FDFECFB2E0B0936E00ED
:100D30006160B9B7B061B9BFB72FB670A1F02091AB
:100D40007A0030917B0036952795F8940CB51DB547
:100D5000020F131F1BBD0ABD6160B0E1B8BFB9B778
:100D6000B061B9BF78940895606120927E0020E060
:100D700067FD20E206C0606120927E0020E267FDF0
:100D800020E0789401E076FD11C0B72FB67009F02D
:100D90006F7EB0917B00B55048F002E0B55020F076
:100DA00003E0B55008F006E071FD0AE060FD12C0F6
:100DB000B0917E00BB2371F071FF08C0B0916D004F
:100DC000B33020F0B0916E00BA9519F47894706148
:100DD0005CC0AEDF789400000000F89476FD16C089
:100DE00010917B00173008F017E0B5E01B0F72FD83
:100DF00010E183FF110F62FF110F71FD12E8B4B50E
:100E00006090A100B61990F2B10B80F2B0B7B77F35
:100E1000B0BFB8B1B0B7B860B0BFB0917E00B39505
:100E2000B0937E00B8B176FD06C0B1E071FDB2E0CE
:100E3000BA95F1F7B8B1B072B21709F01BC071FFE3
:100E400005C003950A3008F00395B0CF64FF99CF31
:100E50006F7E3CB56DB470907A0080907B00370D4A
:100E6000681C6BBC3ABD6160B0E1B8BFB9B7B06196
:100E7000B9BF87CFB0916D00B23008F482CF64FD66
:100E800080CF0A9509F092CF7F7E20918E0030911D
:100E90008F00F894B0E1B8BF0CB51DB5020F131F59
:100EA0001BBD0ABDE0908800F09089006160B9B771
:100EB000B061B9BF7894B72FB67039F0B0916D00BA
:100EC00072FFB395B0936D0009C074FF07C067FD52
:100ED00005C064FD03C0BF91BF91D0C4089500E078
:100EE00063FF03C064FF01C001E0F894109171003A
:100EF000B7E01B9F212D102D7894200F2695179574
:100F0000269517952695179510937100183718F4A4
:100F1000B8E7B093710000917100B09172000B17A7
:100F200020F060629598AC98C09860FDFECFE0908C
:100F30008A00F0908B006160B9B7B061B9BF0895C5
:100F4000B2E095FD07C0F894B0937D00AD9A9498F7
:100F50007894E5C0F894B0937D00AD9AAB987894FE
:100F6000DEC0B3E082FF24C095FD11C002E0F8941A
:100F7000B0937D00E7E8F0E00093B300C098AB9A2F
:100F800062FF02C0AC9A01C0AD987894C8C002E07C
:100F9000F894B0937D00E7E8F0E00093B3009598F3
:100FA000949A62FF02C0AC9A01C0AD987894B7C021
:100FB00095FD0BC0F894B0937D00E1E7F0E0C09898
:100FC00062FF01C0AC9A7894AAC0F894B0937D00F7
:100FD000E1E7F0E0959862FF01C0AC9A78949FC079
:100FE000B4E095FD07C0F894B0937D00949AAB9857
:100FF000789495C0F894B0937D00AB9A94987894C7
:101000008EC0B5E082FF24C095FD11C001E0F894C8
:10101000B0937D00EDE7F0E00093B300AC98AD9A9B
:1010200062FF02C0959A01C09498789478C004E059
:10103000F894B0937D00E1E9F0E00093B300AC9840
:10104000AD9A62FF02C0C09A01C0AB98789467C0A5
:1010500095FD0BC0F894B0937D00EBE6F0E0AC9802
:1010600062FF01C0959A78945AC0F894B0937D00BD
:10107000E7E7F0E0AC9862FF01C0C09A78944FC0F7
:10108000B6E095FD07C0F894B0937D00AB9AAD989B
:10109000789445C0F894B0937D00949AAD98789474
:1010A0003EC0B1E082FF24C095FD11C004E0F89479
:1010B000B0937D00E1E9F0E00093B3009598949A35
:1010C00062FF02C0C09A01C0AB98789428C001E0CA
:1010D000F894B0937D00EDE7F0E00093B300C09882
:1010E000AB9A62FF02C0959A01C09498789417C099
:1010F00095FD0BC0F894B0937D00E7E7F0E095987C
:1011000062FF01C0C09A78940AC0F894B0937D0041
:10111000EBE6F0E0C09862FF01C0959A78946F7D8D
:1011200008952AE630E0F9012092B3009598AC9832
:10113000C098949AAD9AAB9A6B7F0895A4EBB0E0F7
:1011400009E00D9309E00D9304E00D930FEF0D936B
:1011500003E00D930FEF0D930BE00D9303E00D9360
:1011600001E00D9301E00D93A0ECB0E001E00D93E0
:101170000FEF0D930D930D930D930D9303E00D93CE
:101180000FEF0D930FEF0D930D9305E20D9300ED0F
:101190000D9308E20D9300E50D9304E00D930FEF1E
:1011A0000D9302E00D9300E00D930AE70D930FEF0E
:1011B0000D9300E00D9301E00D9300E00D9303E02B
:1011C0000D9308952091BB008B7F233009F4846038
:1011D000B091BC00B33019F09F7DB1FD90629F7B50
:1011E000B091BD00B1FD9064223011F0886001C063
:1011F000877F08950A95E00FF21DB4910895ECE100
:10120000F0E00091B400F6DFB093D800ECE1F0E03C
:101210000091B500EFDFB093D900EAE2F0E0009171
:10122000BA00E8DFB093DA00B091D0000FEF1CE015
:10123000B23011F400EA1AE0B33011F402E815E01C
:101240000093720010937300E8E3F0E00091D70080
:10125000D1DFB093A200089508952091CA00309183
:10126000CB00B091BC00B33009F43E5097FF02C0F0
:1012700020E03FEFB32FB21B6B2EB25810F4B2E850
:101280006B2E00E00395609EB12DBD57D8F30093FF
:10129000AE0008959068E1DFC4D920E030E0B0E10D
:1012A0006B2EBBD9B09197002B0F321D6A94C9F7F2
:1012B000B4E036952795BA95E1F7822E9F77CDDF7A
:1012C0000895F894E3E0F0E0B9E0B7BFB491B078E6
:1012D000C1F3F894A895B1B5B861B1BDB0E0B1BDA6
:1012E000B4E0BEBFBFE5BDBF1CDFB0E0B8BBB1E13D
:1012F000B7BBB8E2B5BBB8E3B4BBB0E1B2BBB0E3D7
:10130000B1BB2224A0E0B0E02D92AA31E9F7A0E61B
:10131000B0E00FEF2D920A95E9F7B1E0B093A40089
:101320000DDFDBD2B6B1B460B6B90091CC0000934A
:10133000AF00B1E0B0936A00F89477D981D971D940
:1013400082D96FD983D96DD9F8940AEF1AEFA0B377
:1013500096FDA095A2FF1FC01A95C9F70A95B1F78F
:10136000E0E0FCE1B591B43E39F4B591B03E21F432
:10137000B591BF3F09F40CC0E0E0F395F395B5914A
:10138000B83F49F4B591B43931F4B591BA3A19F48A
:10139000EE27F695099416DF32DF5EDF5EDF0091FF
:1013A000CC000093AF00BDDEB2E0B3BFB2E0BEBD83
:1013B000B2E0B5BDB1E5B8BFB9BFB0B7B77FB0BF98
:1013C000B8B1B0B7B860B0BF26D97894E6DAB3E068
:1013D00096FDB2E0B5BFB0E4BBBFBB27B064BABFF7
:1013E0008D7F23D9626033E02CE0B0919600BB235F
:1013F00019F42CE03A9509F414D980FF8E7FB0914E
:101400009700B230B92FBF710091990000939800F6
:10141000B0939900B0172A956D7FB3E096FDB2E0C6
:10142000B5BFBB27B064BABF8D7FB091D600BB23D8
:1014300021F48062B92FB0709B2F8F7B20926700C0
:10144000F2D885FFB0916700BA3000F0E6D802E02C
:1014500085FF01C000E0B0919700B017F894F0D874
:10146000EFD8EED87894E1D820928700B091BC00F4
:10147000B33074C0D2D8B091C000B13008F46EC09F
:10148000B0916A00B13008F469C085FD18C0B09110
:101490009700BF3F08F462C0F894DBD87894C3D8B3
:1014A000B0919700B130C0F7F894CAD8B8D8C8D86E
:1014B0007894B9D8B0919700BF3FB0F3CFC2B3E0F2
:1014C0009B2E9068F894C9DE7894ADD8F8949F77F5
:1014D000C4DE80909700B0919700BF37789408F4ED
:1014E00044C099D8F894B5D878949A9451F7D2DE3C
:1014F000B82DB550B093CB0098D8F8941BD281D2B8
:101500007894BAE09B2E9068F894A7DE78948BD8F4
:10151000F8949F77A2DE80909700B0919700BF3734
:10152000789478F778D8F8948BD879D889D8789443
:101530009A9449F7AFDEB82DBB5FB093CA0075D857
:10154000F894F8D16DD278946ED8F89486DE7894B9
:10155000B0919700BF3F08F498CF80C200919700E8
:10156000B09187000B17009387005DD801E0B09120
:10157000BC00B35009F405E0B0919700B01700F03B
:10158000F89467D866D865D878944FD820926A00C6
:1015900020926B0020926C00B0916B00B395B093D9
:1015A0006B00BF3F69F5B0916C00B395B0936C00D0
:1015B000B091CE0009E1BA9559F002E3BA9541F035
:1015C0000DE7BA9529F00AEFBA9511F020926C0058
:1015D000B0916C00B017A0F0B0916C00BA95B093C8
:1015E0006C00B4EBB0936B00B091CD00B093AF0042
:1015F000F8942FD87894B091CC00B093AF0013D862
:101600000ED8B0916800BB2311F485FF00C001E043
:1016100085FD01C006E0B0919700B01708F4BCCF7B
:10162000B091BC00B35009F0FED7B0916800BB2365
:1016300009F4F89476DD20926100209262002092F5
:101640006300522C209264002092A3007894B09101
:10165000B900BB0FB093A00020927F0020928000C1
:101660002092810020928200209283002092AC0080
:1016700060E070E020927100B8E0B093AC00786058
:10168000CAD7B2E073FDB1E0B7B9B6B1B068B06423
:10169000B6B9B6B1B6FDFDCF04B115B1B6B1BF77DD
:1016A000B6B9112309F00FEF0093AD0078D9B8E077
:1016B000B093AC0078608090BB00B2E0B093BB0008
:1016C00081DD8092BB00F894BFEFB0939C00C6D937
:1016D000B0916100B0939C00B0939D00B0939E00C8
:1016E0007894B1E0B0936100B09363005B2EB09347
:1016F0006400B093A600B0919B00B093A500B09198
:10170000BC00B33019F49F7D87FD906271607260F8
:1017100020926D00B5DCC5DCBAD9BFD9B8D9BDD926
:10172000B6D906C0F8944EDD78942092AC00777F4D
:1017300022DB06D8D4DB04DCB0D916DB66FD39D851
:1017400076FFEBD876FD19D9CADB0BDCA6D913DB03
:1017500066FD4BD8C4DB44DCA0D906DB66FD7FD830
:10176000BEDB4FDC9AD907DB66FDA9D8B8DB88DC85
:1017700094D9FADAB2E073FDB1E0B7B9B6B1B068A6
:10178000B064B6B9ACDB8DDC88D909D971FF26C04D
:1017900067FD24C0B0919F00B0939C00B0939D0062
:1017A000B0919B00B093A500B1E0B093A60018E102
:1017B0002CE0B0916D00B11758F07D7F74602093DC
:1017C0006F00B0919F00B0939C00B0939E0006C044
:1017D000B0919700B13008F0ABCF5AC072FF10C083
:1017E00067FD0EC0B0916F00BA9511F47B7F9ACF60
:1017F000B0936F00B0919700B13008F099CF48C016
:1018000020927000B0919A000AEFB01708F040C023
:1018100085FF04C0B0916800BB23D1F1B091BC003A
:10182000B33081F495FD03C087FD04C00BC087FF72
:1018300001C008C067FD06C06068B0919F00B0930A
:101840009C008BCF00EF67FF05C0B0919F00B09365
:101850009C0000E2B0917B00B01708F469CF67FFED
:1018600017C06F779F7D87FD90627460B2E1B0937F
:101870006F00B0919F00B0939C005ACFB091700060
:10188000B395B0937000B0919700BB2309F002C0EC
:1018900020927000F89445DC8090BB00B2E0B093D9
:1018A000BB0090DC8092BB0020926100209262001D
:1018B00020926300522C209264002092A0007E7F30
:1018C0007894A9D62EDCB6B1B460B6B985FF04C051
:1018D000B0917000B53000F05BCEEDE0F0E023D0C9
:1018E000053509F01BC0EEE0F0E01DD00A3A09F022
:1018F00015C03AE0A4EBB0E0E3E0F0E014D00D93C3
:1019000031963A95D9F738E1A0ECB0E0EFE0F0E09D
:101910000AD00D9331963A95D9F702C00FDC0AD060
:10192000E7E2F0E00895E199FECFEEBBFFBBE09A5D
:101930000DB308951ED03AE0A4EBB0E0E3E0F0E090
:101940000D910FD031963A95D9F738E1A0ECB0E07F
:10195000EFE0F0E00D9105D031963A95D9F712D02D
:101960000895E199FECF0DBBEEBBFFBBE29AE19A71
:101970000895EDE0F0E00FEFF4DFEEE0F0E00FEFC0
:10198000F0DF0895EDE0F0E005E5EBDFEEE0F0E0FC
:101990000AEAE7DF08953091B0000091B1003130DC
:1019A00011F40093B400323011F40093B5003330D9
:1019B00011F40093B600343011F40093B8003530C0
:1019C00011F40093BA00363011F40093C60037309A
:1019D00011F40093BB00383011F40093D700393074
:1019E00011F40093D0003A3011F40093BC003B3066
:1019F00011F40093BD00089525E017D62A95E9F764
:101A000008951ED620D622D624D609D619D61BD69E
:101A10001DD61FD604D614D616D618D61AD60895B3
:101A200018D614D610D60CD6FAD513D60FD60BD698
:101A300007D6F5D50ED60AD606D602D608958090DA
:101A4000B0009090B100FCD5FBD5FAD5E8D58A94CA
:101A5000D1F7FFD5E4D59A94E1F70895F894D1DF52
:101A60007894CADFC9DFB1E0B093B000B1E0B093C1
:101A7000B1002092B200F894E2DF7894B5E06B2ECA
:101A800070909700D2D5B09197007B16C9F7B1300E
:101A900018F0BF3F40F107C07EDFF8944BDFB1DFA5
:101AA000B8E0B1BDA9DF6A9459F7B091B200B3951F
:101AB000B093B200B33008F4DECF9EDFB091B10036
:101AC000B395B093B100F894B091B000BA95EEE33D
:101AD000F0E0EB0FF21D049178940395B091B10002
:101AE000B01708F4C6CF88DF87DFB091B000B39598
:101AF000B093B000B091B000BC3008F4B7CF1EDB9B
:0C1B0000F89418DFB8E0B1BD77DFDBCB54
:00000001FF
